:100000000C9462000C948A000C948A000C948A0070
:100010000C948A000C948A000C948A000C948A0038
:100020000C948A000C948A000C948A000C948A0028
:100030000C948A000C948A000C948A000C948A0018
:100040000C94EB090C948A000C945B0A0C94350A0E
:100050000C948A000C948A000C948A000C948A00F8
:100060000C948D0A0C948A000000000024002700E4
:100070002A0000000000250028002B0000000000DE
:1000800023002600290004040404040404040202DA
:100090000202020203030303030301020408102007
:1000A0004080010204081020010204081020000012
:1000B0000008000201000003040700000000000027
:1000C0000000AC0B11241FBECFEFD8E0DEBFCDBFC8
:1000D00022E0ACE4B1E001C01D92A43EB207E1F71A
:1000E00011E0A0E0B1E0E0E0F8E202C005900D927E
:1000F000AC34B107D9F710E0C2E6D0E004C02197D4
:10010000FE010E94FD11C136D107C9F70E94E50B1F
:100110000C94FE130C940000833081F028F481309D
:1001200099F08230A9F008958730A9F08830C9F09D
:100130008430B1F4809180008F7D03C08091800075
:100140008F7780938000089584B58F7784BD08955C
:1001500084B58F7DFBCF8091B0008F778093B00006
:1001600008958091B0008F7DF9CFCF93DF93282F32
:1001700030E0F901E255FF4F8491F901E656FF4F57
:10018000D491F901EA57FF4FC491CC23A1F081111A
:100190000E948C00EC2FF0E0EE0FFF1FE458FF4FA1
:1001A000A591B491EC91ED2381E090E009F480E019
:1001B000DF91CF91089580E090E0FACF1F93CF9325
:1001C000DF93282F30E0F901E255FF4F8491F901C8
:1001D000E656FF4FD491F901EA57FF4FC491CC2363
:1001E000A9F0162F81110E948C00EC2FF0E0EE0F89
:1001F000FF1FEE58FF4FA591B4918FB7F894EC9183
:10020000111108C0D095DE23DC938FBFDF91CF9111
:100210001F910895DE2BF8CF3FB7F8948091C3016A
:100220009091C401A091C501B091C60126B5A89BCB
:1002300005C02F3F19F00196A11DB11D3FBFBA2F78
:10024000A92F982F8827BC01CD01620F711D811D38
:10025000911D42E0660F771F881F991F4A95D1F7BD
:1002600008958F929F92AF92BF92CF92DF92EF92BA
:10027000FF926B017C010E940C014B015C01C114D7
:10028000D104E104F104B9F00E940C016819790964
:100290008A099B09683E73408105910580F321E03E
:1002A000C21AD108E108F10888EE880E83E0981E92
:1002B000A11CB11CE4CFFF90EF90DF90CF90BF90D6
:1002C000AF909F908F9008952FB7F8946091BF01E1
:1002D0007091C0018091C1019091C2012FBF08951A
:1002E00008950895AF92BF92CF92DF92EF92FF925E
:1002F0000F931F93CF93DF936C017B018B01040F4E
:10030000151FEB015E01AE18BF08C017D10759F0E9
:100310006991D601ED91FC910190F081E02DC6012B
:100320000995892B79F7C501DF91CF911F910F9125
:10033000FF90EF90DF90CF90BF90AF900895FC01B9
:10034000538D448D252F30E0842F90E0821B930B3A
:10035000541710F0CF96089501970895FC01918DE0
:10036000828D981761F0A28DAE0FBF2FB11D5D96E3
:100370008C91928D9F5F9F73928F90E008958FEF85
:100380009FEF08958F929F92AF92BF92CF92DF928C
:10039000EF92FF920F931F93CF93DF937C018C0119
:1003A000060F171FEC016E01CE18DF080C171D0792
:1003B00059F10E94640160933F0270934002809360
:1003C00041029093420287E392E00E94AE0197FFC0
:1003D00029C00E94640180903F0290904002A0904A
:1003E0004102B0904202681979098A099B098090FC
:1003F0003B0290903C02A0903D02B0903E026815F6
:1004000079058A059B05F8F2C601DF91CF911F910E
:100410000F91FF90EF90DF90CF90BF90AF909F90A3
:100420008F9008958993BFCF0C94C201FC01918DE8
:10043000828D981731F0828DE80FF11D858D90E047
:1004400008958FEF9FEF0895FC01918D228D892FE4
:1004500090E0805C9F4F821B91098F7399270895CC
:1004600087E392E00E94240221E0892B09F420E036
:10047000822F089580E090E0892B29F00E943002BD
:1004800081110C9400000895FC01A48DA80FB92FD0
:10049000B11DA35ABF4F2C91848D90E001968F73AC
:1004A0009927848FA689B7892C93A089B1898C91CB
:1004B000837080648C93938D848D981306C002881A
:1004C000F389E02D80818F7D80830895EF92FF92E4
:1004D0000F931F93CF93DF93EC0181E0888F9B8D67
:1004E0008C8D98131AC0E889F989808185FF15C021
:1004F0009FB7F894EE89FF896083E889F989808144
:100500008370806480839FBF81E090E0DF91CF9112
:100510001F910F91FF90EF900895F62E0B8D10E034
:100520000F5F1F4F0F731127E02E8C8D8E110CC0A3
:100530000FB607FCFACFE889F989808185FFF5CFEE
:10054000CE010E944402F1CFEB8DEC0FFD2FF11D87
:10055000E35AFF4FF0829FB7F8940B8FEA89FB892B
:1005600080818062CFCFCF93DF93EC01888D882389
:10057000B9F0AA89BB89E889F9898C9185FD03C006
:10058000808186FD0DC00FB607FCF7CF8C9185FFEB
:10059000F2CF808185FFEDCFCE010E944402E9CFEA
:1005A000DF91CF91089520918D01260F3327331FBE
:1005B00021323105ECF420910D02FC0190E080E045
:1005C000243069F082E00895A0918D012191AC0161
:1005D00043595E4FA40FB52FB11D2C93019686177A
:1005E00098F380918D01680F60938D0180E00895EC
:1005F00081E0089510920D0281E080930C02109228
:10060000E70161E082E10E94DE0061E083E10E9497
:10061000DE00E9EBF0E080818E7F808380818D7F3A
:10062000808388E48093B80085E48093BC000895BB
:10063000CF93DF9391E09093B6018823B9F0C091F6
:10064000B800D091BA008091BC008A7B8093BC0036
:1006500060E082E10E94DE0060E083E10E94DE0053
:100660000E94FA02D093BA00C093B800DF91CF91F4
:1006700008958F929F92AF92BF92CF92DF92EF92A6
:10068000FF920F931F93CF93DF93D0913602D13215
:1006900008F0D7C0182FC09135020E940C016B01E1
:1006A0007C0180910D0281116BC082E080930D026C
:1006B00010930C028FEF80930B0210920A02D093DA
:1006C0000902A5E1B2E0E9EEF1E080E0D81391C0C3
:1006D0001092E8018091E801CC0FC82BC093E8018B
:1006E0008091E701813009F088C01092E7010E94F3
:1006F0000C016B017C018091E8018093BB0080912B
:100700000F0290911002A0911102B0911202892B58
:100710008A2B8B2BA1F00E940C0100910F021091EB
:10072000100220911102309112026C197D098E097C
:100730009F09061717072807390708F442C0809158
:10074000BC0083FDD8CF85EC8093BC000E940C01D7
:100750006B017C0180910D02823009F450C08091C0
:100760000B028F3F09F46FC080910B02803209F4B5
:100770006CC080910B02803309F469C084E026C00C
:1007800080910F0290911002A0911102B09112027B
:10079000892B8A2B8B2B09F484CF0E940C0180902B
:1007A0000F0290901002A0901102B09012026C19EA
:1007B0007D098E099F0986169706A806B90608F0D6
:1007C00070CF80910E020E94180385E010921402EF
:1007D0001092360210921302DF91CF911F910F9168
:1007E000FF90EF90DF90CF90BF90AF909F908F9051
:1007F00008959D9191938F5F69CF85EEA5CF8091EC
:100800000F0290911002A0911102B0911202892B57
:100810008A2B8B2B09F49ECF0E940C0100910F02B2
:100820001091100220911102309112026C197D0971
:100830008E099F09061717072807390708F08ACF7E
:10084000C0CF81E0C3CF80E0C1CF82E0BFCF83E0E3
:10085000BDCFCF92DF92EF92FF920F931F93CF9372
:10086000DF93D82FC62F613208F098C00E940C0188
:100870006B017C0180910D0281116BC081E080933E
:100880000D0280930C029FEF90930B0210920A02CC
:100890009C0F909309028093E8018091E801DD0F9D
:1008A000D82BD093E8018091E701813009F078C01E
:1008B0001092E7010E940C016B017C018091E8011C
:1008C0008093BB0080910F0290911002A0911102C1
:1008D000B0911202892B8A2B8B2BA1F00E940C0164
:1008E00000910F021091100220911102309112021A
:1008F0006C197D098E099F09061717072807390704
:1009000008F448C08091BC0083FDD8CF85EC80936B
:10091000BC000E940C016B017C0180910D028130B2
:1009200009F440C080910A028C1710F4C0910A02A9
:10093000E9EEF1E0A7ECB1E080E08C1355C08C2F1C
:10094000DF91CF911F910F91FF90EF90DF90CF90AB
:10095000089580910F0290911002A0911102B09120
:100960001202892B8A2B8B2B09F484CF0E940C0155
:1009700000910F0210911002209111023091120289
:100980006C197D098E099F09061717072807390773
:1009900008F070CF80910E020E941803C0E0CFCF04
:1009A00085EEB5CF80910F0290911002A0911102B7
:1009B000B0911202892B8A2B8B2B09F4AECF0E94A7
:1009C0000C0100910F021091100220911102309140
:1009D00012026C197D098E099F090617170728074F
:1009E000390708F09ACFD6CF91919D938F5FA5CF0D
:1009F0000895E091B5018091B401E81730F4F0E07A
:100A0000E953FE4F808190E008958FEF9FEF0895A6
:100A10009091B5018091B4012FEF3FEF981748F402
:100A2000E92FF0E0E953FE4F208130E09F5F909383
:100A3000B501C90108958091B4019091B501891B58
:100A4000990B0895CF92DF92EF92FF920F931F932D
:100A5000CF93DF937C01CB018A01209113022223E3
:100A600089F0EB016B01C40ED51ECC15DD0569F0D4
:100A70006991D701ED91FC910190F081E02DC701C2
:100A80000995F3CF642F0E94D302C801DF91CF9163
:100A90001F910F91FF90EF90DF90CF900895CF932B
:100AA000DF931F92CDB7DEB7698320911302222313
:100AB000F9F020913602203258F021E030E0FC01BC
:100AC0003383228390E080E00F90DF91CF910895EF
:100AD00080911402E82FF0E0EB5EFD4F9981908346
:100AE0008F5F809314028093360281E090E0ECCF18
:100AF00061E0CE0101960E94D302F7CF682F84ED0A
:100B000092E00C944F0590E080E00895CF93DF933E
:100B1000C62FD42F91E09093130280933502109248
:100B200014021092360284ED92E00E944F056D2F60
:100B300084ED92E00E944F0581E00E943903D82F96
:100B40006AE070E080E090E0CB3019F460E070E0A3
:100B5000CB010E94310181E0D11180E0DF91CF9182
:100B6000089591E09093130280933502109214023D
:100B70001092360280E00E94390391E0811190E0EA
:100B8000892F0895EF92FF921F93CF93DF93D0E0C8
:100B9000C0E010E0EE24E394F12C8C2F805B0E94E7
:100BA000B105882339F0C7010C2E01C0880F0A94C3
:100BB000EAF7182B2196C830D10579F7812FDF91FC
:100BC000CF911F91FF90EF900895CF92DF92EF9217
:100BD000FF92CF93DF93D82FC62F0E94DE00DF3025
:100BE00001F50E9464016B017C012AE0C20ED11C58
:100BF000E11CF11CCC2391F0CCECD0E00E9464010C
:100C00006C157D058E059F05A8F40E94C20590E035
:100C10008C239D23892B91F381E00DC0C3E3DFEF8B
:100C2000EDCF8D2F0E94B50021E0892B09F420E043
:100C300081E02C1380E0DF91CF91FF90EF90DF9067
:100C4000CF9008950E94C20590E0882399F030E08B
:100C500020E090E0482F50E0BA01022E02C07595C6
:100C600067950A94E2F760FD9F5F2F5F3F4F283042
:100C7000310591F7892F089590916C01E92FF0E0EB
:100C8000E45BFE4F80839F5F90936C01089580E248
:100C900090E00E948E11817008951F93CF93DF938F
:100CA000C82FD0E0D595C79591E090931302C093DB
:100CB00035021092140210923602182F117080FD26
:100CC00008C090E080E00E947E0590E080E00E94F5
:100CD0007E0581E00E943903111105C091E088234F
:100CE00069F090E00BC061E08C2F0E942904109203
:100CF000B5018093B40191E0882399F3892FDF91A6
:100D0000CF911F9108958CE60E944D061092B70175
:100D10000E9422068823B1F184EE8093BC0080916A
:100D2000BC0087FFFCCF8091B900887F8830D9F75D
:100D30008DE68093BB0084EC8093BC008091BC0066
:100D400087FFFCCF9091B900987F903491F4109276
:100D5000BB0084EC8093BC008091BC0087FFFCCF7B
:100D60001092BB0084EC8093BC008091BC0087FF94
:100D7000FCCF84ED8093BC00903431F0983411F0B6
:100D800081E0911180E0089581E00895CF92DF9293
:100D9000EF92FF92CF93C82F682F89E00E94DE0068
:100DA0000E9464016B017C0129E1C20ED11CE11C8F
:100DB000F11C0E9464016C157D058E059F0580F471
:100DC00086E00E94B50021E0892B09F420E0C213DF
:100DD000F0CF81E0CF91FF90EF90DF90CF9008951A
:100DE00080E0F8CF80E00E94C606882321F061E011
:100DF0008FE00C94E50580E00895CF93DF9367FFC3
:100E000004C080E0DF91CF910895D62FC82F4423EE
:100E100021F070E060E00E94780781E08093130287
:100E2000C093350210921402109236028D2F90E07A
:100E30000E947E0580E00E9439038111E2CF61E0CB
:100E40008C2F0E9429041092B5018093B401811166
:100E500001C0FFCF84ED92E00E940805D3CFCF936D
:100E6000282F30E093E0359527959A95E1F72A30C1
:100E7000310511F080E022C0C82F0E94B1058823FF
:100E8000C9F38C2F877088640E94B105882391F381
:100E900040E06BE08C2F0E94860540E060E08C2FE4
:100EA0000E94FD06813531F740E061E08C2F0E9401
:100EB000FD06982F9F7E81E09830E1F6CF9108954E
:100EC000CF93811103C0CF910C948306C82F0E9449
:100ED000B105811103C080E0CF9108950E9483067F
:100EE0008823C9F38C2F0E942F0791E08927F4CF24
:100EF0001F93CF93DF93282F30E043E0359527955C
:100F00004A95E1F72A30310551F5611594E07907EA
:100F100030F5EB01182F0E942F07882369F0CC0FC2
:100F2000CD2FCC1FDD0BD1954C2F6BE0812FDF91A6
:100F3000CF911F910C948605C11582E0D80778F4F3
:100F4000CD2FDD278091B7018C171D0641F08EE66D
:100F5000209709F48CE60E944D06C093B701DF91FB
:100F6000CF911F91089580E50E942F07882341F0BB
:100F700041E060E380E50E94FD0682FB882780F95E
:100F800008958F929F92AF92BF92CF92DF92EF928D
:100F9000FF920F931F93CF93DF9300D000D0CDB774
:100FA000DEB7A42EB12CAB014F7055274A0D5B1D47
:100FB0004131510510F080E065C049016B01182FE7
:100FC0000E942F07882351F10E94B307882331F133
:100FD000760196E0F694E7949A95E1F70E2D812F2D
:100FE0000E942F07882309F45EC00031B8F4B701CE
:100FF00083E0759567958A95E1F76F717727645F50
:1010000041E0812F0E94FD0690E02E2D277002C046
:10101000959587952A95E2F780FDCDCF812F0E9487
:101020002F077601882349F06894E7F841E060E3F0
:10103000812F0E94FD0683FDF9CFB601812F0E940A
:10104000780781E080931302109335021092140206
:10105000109236026E2D84ED92E00E944F05A5019C
:10106000B40184ED92E00E94220581E00E943903E0
:10107000182F6AE070E080E090E00E94310181E08A
:10108000111199CF0F900F900F900F90DF91CF918A
:101090001F910F91FF90EF90DF90CF90BF90AF9096
:1010A0009F908F9008958091060190910701A091E3
:1010B0000801B091090189839A83AB83BC838FEFC8
:1010C0008E0D833068F4FE01EE0DF11D81810E94CA
:1010D0004D06082F0E94F206002309F46CCF9ECF24
:1010E000EE2011F083E6F3CF0E9483068111FACF40
:1010F00081E00E94C606F6CFDF92EF92FF920F9337
:101100001F93CF93DF93C82FD62FF72E042FD22E05
:10111000E32E162F0E942F07811110686D2F7F2D4F
:101120008C2F0E94780781E080931302C0933502D0
:101130001092140210923602612F84ED92E00E9408
:101140004F0580E00E943903811120C0602F0132D9
:1011500008F060E28C2F0E942904F82E1092B5014D
:101160008093B401F016F0F3CD2DDE2D0C0F1D2F62
:10117000111DC017D10799F08091B501F816F1F350
:1011800084ED92E00E9408058993F3CF80E0DF911F
:10119000CF911F910F91FF90EF90DF90089581E024
:1011A000F6CFFF920F931F93CF93DF93EC01F62EB0
:1011B00008811981C8010E948E11F81621F06F2D47
:1011C000C8010E949611CE01DF91CF911F910F911E
:1011D000FF900895FC0180819181009711F00C949B
:1011E0009F120895EF92FF920F931F93CF93DF9377
:1011F000EC017B018A0188819981009729F02A817D
:101200003B812417350788F4B8016F5F7F4F0E9438
:101210002813009791F0998388831B830A832C817C
:101220003D81232B11F4FC0110821D830C83B70137
:10123000888199810E94F7130CC088819981009759
:1012400011F00E949F12198218821D821C821B823B
:101250001A82CE01DF91CF911F910F91FF90EF90F5
:101260000895AF92BF92CF92DF92EF92FF920F93C9
:101270001F93CF93DF93CDB7DEB761970FB6F89486
:10128000DEBF0FBECDBF8C01CE0101965C01F12CFB
:10129000E12C6C01C7010E948E11F50181935F0161
:1012A000FFEFEF1AFF0A80E1E816F10499F7198AB7
:1012B000F801118210821382128215821482F601C3
:1012C00001900020E9F73197AF014C195D09B60193
:1012D000C8010E94F208C80161960FB6F894DEBFFB
:1012E0000FBECDBFDF91CF911F910F91FF90EF9077
:1012F000DF90CF90BF90AF90089585ED8093BC00B4
:1013000080910F0290911002A0911102B0911202EF
:101310000796A11DB11D23E0B695A79597958795D2
:101320002A95D1F72091BC0024FD03C010920D0234
:10133000089540910F025091100260911102709136
:101340001202452B462B472B69F30097A105B105E7
:1013500041F02AE22A95F1F700C00197A109B109ED
:10136000E1CF80910E020C941803CF93DF93C091CC
:101370006C01CC2369F1ECE4F1E080E0D0E09191E4
:10138000D90F8F5FC813FBCF66E287E392E00E941C
:1013900066026C2F87E392E00E9466024C2F50E0B9
:1013A0006CE471E087E392E00E9472016D2F87E3A5
:1013B00092E00E94660287E392E00E94B3021092DC
:1013C0006C01ECE4F1E080E2DF011D928A95E9F71F
:1013D000DF91CF9108951F920F920FB60F921124B3
:1013E0002F933F938F939F93AF93BF938091BF01B0
:1013F0009091C001A091C101B091C2013091BE0194
:1014000023E0230F2D3758F50196A11DB11D209320
:10141000BE018093BF019093C001A093C101B0931E
:10142000C2018091C3019091C401A091C501B09106
:10143000C6010196A11DB11D8093C3019093C40103
:10144000A093C501B093C601BF91AF919F918F91B9
:101450003F912F910F900FBE0F901F90189526E887
:10146000230F0296A11DB11DD2CF1F920F920FB66E
:101470000F9211242F933F934F935F936F937F931A
:101480008F939F93AF93BF93EF93FF9387E392E084
:101490000E944402FF91EF91BF91AF919F918F9174
:1014A0007F916F915F914F913F912F910F900FBE60
:1014B0000F901F9018951F920F920FB60F92112444
:1014C0002F938F939F93EF93FF93E0914702F091B7
:1014D00048028081E0914D02F0914E0282FD1BC0D6
:1014E0009081809150028F5F8F73209151028217FB
:1014F00041F0E0915002F0E0E95CFD4F958F809360
:101500005002FF91EF919F918F912F910F900FBEFD
:101510000F901F9018958081F4CF1F920F920FB6F5
:101520000F9211242F933F934F935F936F937F9369
:101530008F939F93AF93BF93EF93FF938091B900E5
:10154000887F803609F44AC0F0F5883209F4A7C0D4
:1015500018F5803109F49BC0B8F4882309F4F9C068
:10156000883009F494C0FF91EF91BF91AF919F91A2
:101570008F917F916F915F914F913F912F910F903C
:101580000FBE0F901F901895883109F488C08032E3
:1015900051F780930B0214C0803409F49DC040F4CD
:1015A0008033B9F38833F9F680930B0285ECB0C031
:1015B000803509F485C0883509F496C0883499F6D9
:1015C0000E947D09D0CF883909F48CC038F588375E
:1015D00029F050F4883611F0803729F683E08093A3
:1015E0000D021092AF0157C0883809F47BC08039D2
:1015F00019F0803809F0B7CF8091AF01803208F040
:1016000071C0E091AF0181E08E0F8093AF018091B6
:10161000BB00F0E0E157FE4F80833DC0803B39F0D6
:10162000E0F4803A09F479C0883A09F09CCF84E06C
:1016300080930D0210928E0110928D01E091B20103
:10164000F091B301099580918D0181110FC081E066
:1016500080938D0110926D0109C0803C09F4A6CFE2
:10166000883C09F4A3CF883B09F07DCFE0918E013F
:1016700081E08E0F80938E01F0E0E359FE4F808170
:101680008093BB0090918E0180918D0129C0809143
:10169000E8018093BB0085EC8093BC0064CF9091FF
:1016A0000A0280910902981758F5E0910A0281E038
:1016B0008E0F80930A02F0E0E751FE4F8081E9CF60
:1016C000E0910A0281E08E0F80930A028091BB00B4
:1016D000F0E0E751FE4F808390910A028091090269
:1016E0009817C8F285E8D8CFE0910A0281E08E0F02
:1016F00080930A028091BB00F0E0E751FE4F8083A7
:1017000080910C0281115CCF81E08093E70184EA33
:101710008093BC0010920D0226CF85EC8093BC0014
:1017200010920D028091AF01803230F4E091AF0150
:10173000F0E0E157FE4F10826091AF0170E0E09160
:10174000B001F091B1018FE891E009951092AF01DD
:101750000ACF10920B0234CFE7E3F2E01382128239
:1017600088EE93E0A0E0B0E084839583A683B783FE
:1017700024E231E03183208325EC30E03587248773
:1017800024EC30E03787268720EC30E0318B208B4B
:1017900021EC30E0338B228B22EC30E0358B248B34
:1017A00026EC30E0378B268B118E128E138E148E22
:1017B000E4EDF2E01382128284839583A683B783DB
:1017C00086E391E0918380830895CF93DF93CDB733
:1017D000DEB72F970FB6F894DEBF0FBECDBF78945B
:1017E00084B5826084BD84B5816084BD85B5826026
:1017F00085BD85B5816085BD80916E0081608093D7
:101800006E0010928100809181008260809381003F
:10181000809181008160809381008091800081604F
:10182000809380008091B10084608093B1008091AA
:10183000B00081608093B00080917A0084608093D2
:101840007A0080917A00826080937A0080917A0099
:10185000816080937A0080917A00806880937A001A
:101860001092C100AEE0B1E020E231E012968D911D
:101870009C9113979927FC01E656FF4F44918A5794
:101880009F4FFC0184918823F9F015965C91159780
:1018900090E0880F991FFC01E859FF4F6591749102
:1018A000FC01EE58FF4F85919491511143C11FB730
:1018B000F894FB015081042F009550235083FC01C4
:1018C0004081402340831FBF16962A173B0709F02B
:1018D000CDCF0E94F2061092B5011092B401109281
:1018E0001402109236020E94FA0280E791E090936F
:1018F000B3018093B20181E791E09093B1018093AD
:10190000B0011092B60180E197E2A0E0B0E08093D0
:101910000F0290931002A0931102B093120281E083
:1019200080930E020E94470624E0829FF00111245A
:10193000EC5BFE4F208131814281538160E074E293
:1019400084EF90E00E94DB112051310941095109D7
:1019500056954795379527952093B8000E944706DE
:1019600034E0839FF0011124EC5BFE4F91E0408155
:10197000518162817381452B462B472B09F490E0FE
:101980009093BA019093B9010E9422068093BC0102
:101990008093BB018CE60E944D061092B701E09146
:1019A0004702F091480282E08083E0914302F09187
:1019B00044021082E0914502F091460280E180836A
:1019C00010924F02E0914B02F0914C0286E080832E
:1019D000E0914902F0914A02808180618083E09128
:1019E0004902F0914A02808188608083E091490237
:1019F000F0914A02808180688083E0914902F091F1
:101A00004A0280818F7D808384E690E0A0E0B0E090
:101A100080933B0290933C02A0933D02B0933E0220
:101A200081E00E943C060E94B50940900A01509056
:101A30000B0160900C0170900D01C12C74E2D72E47
:101A400074EFE72EF12C60E089E00E94DE0061E097
:101A50008FE00E94DE0087E392E00E942402892B3F
:101A600049F087E392E00E942402892B09F078C0B4
:101A70001092BD011091BD0111114FC089E00E946B
:101A8000B500892B11F586E00E94B500892BE9F499
:101A90000E9422068093BC019091BB018917A9F096
:101AA000F0E4F983891708F029C48DE28A8342E0C3
:101AB00050E0BE016F5F7F4F87E392E00E947201AA
:101AC0008091BC018093BB0111E00E944706809386
:101AD000BA019091B9019817A1F020E429838917E0
:101AE00008F00EC48CE58A8342E050E0BE016F5FCF
:101AF0007F4F87E392E00E9472018091BA01809348
:101B0000B901112331F06AE070E080E090E00E94BA
:101B1000310187E392E00E94B30280E090E0892BDC
:101B200009F491CF0E943002882309F48CCF0E94DF
:101B3000000089CF523061F41FB7F894FB01008197
:101B4000542F509550235083FC015081452BBACE21
:101B50008FB7F894FB019081492B40838FBFB4CE9F
:101B600081E08093BD0187E392E00E94AE01825044
:101B7000990B8431910508F081C0FC01EE53F24FBE
:101B80000C94FD11D60D090E220EAC0F02100D1093
:101B9000181049105D0E6D0E620EB20EE30EE60EC9
:101BA000790FDC0FCF0F7C11A31060118DB69EB69C
:101BB00019821A821B821C8264E070E0CE010196B9
:101BC0000E9414026A817B817627672776274C81E1
:101BD000042F10E08DB79EB7801B910B0FB6F894C1
:101BE0009EBF0FBE8DBFEDB7FEB731965F019F015F
:101BF00089810E947C08312C832D90E08017910709
:101C0000C0F58A0D9B1DFC0180810E943C06339427
:101C1000F3CF19821A821B821C8264E070E0CE012D
:101C200001960E94140289816A817B817627672749
:101C300076279C819F839E01295F3F4F41E00E9450
:101C4000C1073DC08DB69EB619821A821B821C82C6
:101C500064E070E0CE0101960E9414020A811B81AB
:101C60001027012710273C8031100BC080E00E9414
:101C70003C060FB6F8949EBE0FBE8DBE0E94B509FD
:101C8000F7CE2980632D70E02DB73EB7261B370BAA
:101C90000FB6F8943EBF0FBE2DBF8DB79EB701960D
:101CA0005C010E94140290E1931500F39501432D0D
:101CB000B801822D0E94C107DACF0E94C2050E949E
:101CC0003C06DCCF198261E070E0CE0101960E94F3
:101CD000140289810E94B105F2CF1F8261E070E099
:101CE000CE0107960E9414021F811230B0F580E2E7
:101CF00090E00E948E11682F112369F1616080E2EB
:101D000090E09A838983CE0101960E94D10824E055
:101D1000129FF0011124EC5BFE4F20813181428142
:101D20005381C701B6010E94DB11205131094109DD
:101D3000510956954795379527952093B8000E94ED
:101D400047069F81282F30E081E09217130609F49F
:101D5000B6CF80E0B4CF6E7FD2CF1F3FD1F70E94C5
:101D60004706ADCF1A82198262E070E0CE0101967B
:101D70000E94140299818A81913091F4823030F46A
:101D8000682F61708FE00E94E50599CF8F3F09F7BA
:101D90000E94C205982F9C7C81E009F090CFD9CF9A
:101DA0009111D7CF823020F481700E94C60687CF70
:101DB0008F3F79F686E00E94B50021E0892B09F477
:101DC00020E0822F7CCF0E94F20679CF1F821886F6
:101DD000198663E070E0CE0107960E9414021F810D
:101DE0008985813009F049C00885003108F050C06C
:101DF000812F0E942F078823D9F0802F8695869502
:101E000086953CE0B32EB80E41E06B2D812F0E94E9
:101E1000FD06077041E050E001C0440F0A95EAF763
:101E2000482B6B2D812F0E948605182F812F47CFBD
:101E300049825A826B827C828FEF800FE02F833041
:101E400008F0E0E081E090E08C0F9D1F8E0F911D67
:101E5000FC01B08081E00E94C606182F882331F370
:101E6000011150C260E08FE00E94E5058B2D0E94B9
:101E70004D06182F0E94F206D9CF81116ACF812F0B
:101E80000E942F07882329F10E94B307811102C005
:101E900010E0CCCF40E06CE0812F0E9486058823C3
:101EA000B9F341E06CE0812F0E94FD068111F0CF73
:101EB00040E06DE0812F0E948605882349F341E0D0
:101EC0006DE0812F0E94FD0611E0882309F4AECF5A
:101ED000DFCF812F0E946007811104C061E08FE095
:101EE0000E94E50581E00E94C606882389F286E605
:101EF000BECF1A82198262E070E0CE0101960E9484
:101F000014020A81013009F024CF1981812F0E9427
:101F10006007882311F090E01DC0812F0E942F07D9
:101F20008111F9CF009313021770106310933502DB
:101F3000109214021092360290E080E00E947E051A
:101F400090E080E00E947E0581E00E94390391E0EC
:101F50008111E1CF892FB3CE19821A821B8263E0EF
:101F600070E0CE0101960E941402B9800A811B81A3
:101F70001027012710279E01235F3F4F41E0B80142
:101F80008B2D0E947C08882309F499CE8D858F8340
:101F90009E01295F3F4F41E0B8018B2D50CE87E273
:101FA0000E943C0684EB0E943C0684E30E943C06AF
:101FB00081E00E943C0662CE0E94F2060E94C205A9
:101FC000182F882309F432CF0E94B30700E0811153
:101FD00000E281E00E94C606102F882309F44ACF50
:101FE000106161E08FE00E94E505882309F442CF8B
:101FF00060E08FE00E94E505882309F43BCF102FB5
:10200000186138CF198261E070E0CE0101960E941C
:10201000140289810E94600752CE198261E070E04B
:10202000CE0101960E94140289810E942F0747CE9B
:1020300019821A821B8263E070E0CE0101960E9431
:10204000140219810A81BB80812F0E942F07811100
:1020500002C00E943C0691E0B91212C01F8261E0EA
:1020600070E0CE0107960E94140285EF800F833046
:1020700008F06FCE4F81602F812F0E9486051FCE02
:10208000EFEFBE1266CE41E0602F812F0E94FD0669
:1020900016CE1F8261E070E0CE0107960E94140206
:1020A0001F81812F0E94B1058823B1F1812F90E01B
:1020B00023E0959587952A95E1F78A309105E1F51A
:1020C000812F0E942F0781113AC00E942206813081
:1020D000D9F40E948306811134C081E08E871F8667
:1020E00030E020E081E0820F4E855F85022E02C045
:1020F000559547950A94E2F740FDE1CD2F5F3F4F9C
:102100002430310579F725CE0E942206823020F056
:102110000E948306882309F319829E012F5F3F4F97
:1021200041E062E070E0812F0E947C0889818C5040
:10213000863038F080E0D2CF099771F7CECF84E0B7
:10214000CDCF82E0CBCF1D8661E070E0CE010D9651
:102150000E9414026D856F3F09F5CE0101960E9421
:10216000310910E0812F90E02D813E818217930785
:1021700080F4E981FA81309749F41092B801E8EBD4
:10218000F1E080810E943C061F5FECCFE80FF91F51
:10219000F8CFCE0101960E94EA0870CD8FEF860F2E
:1021A000803108F0D6CDADB6BEB670E0CB01019659
:1021B0002DB73EB7281B390B0FB6F8943EBF0FBEA4
:1021C0002DBF0DB71EB70F5F1F4FC8010E94C20180
:1021D000ED85E00FF12FF11D108218861F821A86FF
:1021E00019861C861B86F80101900020E9F73197BB
:1021F000AF01401B510BB801CE0107960E94F208B7
:1022000010E0812F90E02B853C8582179307A0F486
:10221000EF81F885309769F41092B801E8EBF1E0AE
:1022200060819A838983CE0101960E94D1081F5F45
:10223000E8CFE80FF91FF4CF3A83298360E0CE019D
:1022400001960E94D108CE0101960E9431092B858A
:102250003C858D819E8128173907E9F48F81988507
:1022600069817A81009709F453C06115710529F5D8
:10227000232B09F451C0FC01808190E009C0232B7D
:1022800009F44AC0FB01808190E091958195910904
:1022900011E0892B09F010E0CE0101960E94EA08B6
:1022A000812F0E943C06CE0107960E94EA080FB6D5
:1022B000F894BEBE0FBEADBEE1CC0E94EE13E8CFD7
:1022C00010E000E0C8010E948E11882321F060E038
:1022D000C8010E9496110F5F1F4F0132110591F73F
:1022E00010E000E0C8010E948E11811132CD0F5F15
:1022F0001F4F01321105B1F781E0E1CC8BE2D6CB63
:102300008FE2F1CB0E948306182F8111AFCDB2CDA1
:102310006115710509F0B3CF11E0BECFF999FECF79
:1023200092BD81BDF89A992780B50895262FF99915
:10233000FECF1FBA92BD81BD20BD0FB6F894FA9AA8
:10234000F99A0FBE019608952F923F924F925F9295
:102350006F927F928F929F92AF92BF92CF92DF92B5
:10236000EF92FF920F931F93CF93DF93CDB7DEB71A
:10237000CA1BDB0B0FB6F894DEBF0FBECDBF0994AE
:102380002A88398848885F846E847D848C849B8405
:10239000AA84B984C884DF80EE80FD800C811B8113
:1023A000AA81B981CE0FD11D0FB6F894DEBF0FBE42
:1023B000CDBFED010895A1E21A2EAA1BBB1BFD01A2
:1023C0000DC0AA1FBB1FEE1FFF1FA217B307E40714
:1023D000F50720F0A21BB30BE40BF50B661F771F6C
:1023E000881F991F1A9469F760957095809590954C
:1023F0009B01AC01BD01CF010895EE0FFF1F0590B9
:10240000F491E02D09940F931F93CF93DF938230C3
:10241000910510F482E090E0E091E202F091E30295
:1024200030E020E0B0E0A0E0309799F421153105CC
:1024300009F44AC0281B390B24303105D8F58A81AC
:102440009B816115710589F1FB0193838283FE01F4
:1024500011C0408151810281138148175907E0F072
:102460004817590799F4109761F012960C93129738
:1024700013961C933296CF01DF91CF911F910F914C
:1024800008950093E2021093E302F4CF2115310581
:1024900051F04217530738F0A901DB019A01BD0141
:1024A000DF01F801C1CFEF01F9CF9093E3028093F0
:1024B000E202CDCFFE01E20FF31F819391932250F0
:1024C000310939832883D7CF2091E0023091E1028E
:1024D000232B41F420910201309103013093E1025A
:1024E0002093E00220910001309101012115310576
:1024F00041F42DB73EB74091040150910501241BD2
:10250000350BE091E002F091E102E217F307A0F44D
:102510002E1B3F0B2817390778F0AC014E5F5F4F39
:102520002417350748F04E0F5F1F5093E102409388
:10253000E002819391939FCFF0E0E0E09CCFCF93B6
:10254000DF930097E9F0FC01329713821282A09189
:10255000E202B091E302ED0130E020E01097A1F437
:1025600020813181820F931F2091E0023091E1029E
:102570002817390709F061C0F093E102E093E00207
:10258000DF91CF910895EA01CE17DF07E8F54A8180
:102590005B819E0141155105B1F7E901FB83EA8397
:1025A00049915991C40FD51FEC17FD0761F4808143
:1025B00091810296840F951FE90199838883828116
:1025C00093819B838A83F0E0E0E012968D919C9149
:1025D00013970097B9F52D913C911197CD01029673
:1025E000820F931F2091E0023091E10228173907F2
:1025F00039F6309751F51092E3021092E202B0934F
:10260000E102A093E002BCCFD383C2834081518119
:10261000840F951FC817D90761F44E5F5F4F8881FB
:102620009981480F591F518340838A819B819383ED
:1026300082832115310509F0B0CFF093E302E093D6
:10264000E2029ECFFD01DC01C0CF13821282D7CF00
:10265000B0E0A0E0EEE2F3E10C94A6118C0100974B
:1026600051F4CB010E9403128C01C801CDB7DEB733
:10267000E0E10C94C211FC01E60FF71F9C0122500F
:102680003109E217F30708F49DC0D901CD91DC911F
:102690001197C617D70798F0C530D10530F3CE0192
:1026A00004978617970708F3C61BD70B2297C19389
:1026B000D1936D937C93CF010E949F12D6CF5B0183
:1026C000AC1ABD0A4C018C0E9D1EA091E202B09185
:1026D000E302512C412CF12CE12C109731F5809123
:1026E000E0029091E1028815990509F05CC0461658
:1026F000570608F058C080910001909101010097A1
:1027000041F48DB79EB74091040150910501841B9F
:10271000950BE817F90708F055C0F093E102E09334
:10272000E002F90171836083A0CF8D919C91119794
:1027300012966C90129713967C901397A815B90572
:1027400059F56C0142E0C40ED11CCA14DB0420F11F
:10275000AC014A195B09DA011296159780F0628282
:10276000738251834083D9016D937C93E114F1040A
:1027700071F0D7011396FC93EE93129776CF2296C1
:102780008C0F9D1FF90191838083F301EFCFF093AC
:10279000E302E093E20269CF4816590608F42C01DF
:1027A0007D01D3019ACFCB010E9403127C010097D7
:1027B00049F0AE01B8010E94E513C8010E949F12C2
:1027C000870153CF10E000E050CFFB01DC0102C0D5
:1027D00001900D9241505040D8F70895FB01DC0163
:1027E0008D91019080190110D9F3990B0895FB0187
:1027F000DC0101900D920020E1F70895F894FFCFDD
:102800000000E402800063696B6162686A60000036
:102810000900000101000F000101FFFF0600000098
:1028200000000000660272019F01B3022402AE01A3
:102830001602000000004F0522058305F8041B0561
:0C2840000805F904A0860100801A0600BB
:00000001FF
